{
  "contractName": "Voting",
  "abi": [
    {
      "inputs": [
        {
          "internalType": "uint256",
          "name": "_startTime",
          "type": "uint256"
        },
        {
          "internalType": "uint256",
          "name": "_endTime",
          "type": "uint256"
        }
      ],
      "stateMutability": "nonpayable",
      "type": "constructor"
    },
    {
      "inputs": [],
      "name": "endTime",
      "outputs": [
        {
          "internalType": "uint256",
          "name": "",
          "type": "uint256"
        }
      ],
      "stateMutability": "view",
      "type": "function"
    },
    {
      "inputs": [
        {
          "internalType": "address",
          "name": "",
          "type": "address"
        }
      ],
      "name": "hasVoted",
      "outputs": [
        {
          "internalType": "bool",
          "name": "",
          "type": "bool"
        }
      ],
      "stateMutability": "view",
      "type": "function"
    },
    {
      "inputs": [
        {
          "internalType": "uint256",
          "name": "",
          "type": "uint256"
        }
      ],
      "name": "parties",
      "outputs": [
        {
          "internalType": "string",
          "name": "name",
          "type": "string"
        },
        {
          "internalType": "uint256",
          "name": "voteCount",
          "type": "uint256"
        }
      ],
      "stateMutability": "view",
      "type": "function"
    },
    {
      "inputs": [],
      "name": "startTime",
      "outputs": [
        {
          "internalType": "uint256",
          "name": "",
          "type": "uint256"
        }
      ],
      "stateMutability": "view",
      "type": "function"
    },
    {
      "inputs": [],
      "name": "totalParties",
      "outputs": [
        {
          "internalType": "uint256",
          "name": "",
          "type": "uint256"
        }
      ],
      "stateMutability": "view",
      "type": "function"
    },
    {
      "inputs": [
        {
          "internalType": "string",
          "name": "_name",
          "type": "string"
        }
      ],
      "name": "registerParty",
      "outputs": [],
      "stateMutability": "nonpayable",
      "type": "function"
    },
    {
      "inputs": [
        {
          "internalType": "uint256",
          "name": "partyId",
          "type": "uint256"
        },
        {
          "internalType": "string",
          "name": "rollNumber",
          "type": "string"
        }
      ],
      "name": "vote",
      "outputs": [],
      "stateMutability": "nonpayable",
      "type": "function"
    },
    {
      "inputs": [],
      "name": "declareWinner",
      "outputs": [
        {
          "internalType": "string",
          "name": "",
          "type": "string"
        }
      ],
      "stateMutability": "view",
      "type": "function"
    }
  ],
  "bytecode": "0x608060405234801562000010575f80fd5b506040516200106738038062001067833981810160405281019062000036919062000088565b81600481905550806005819055505050620000cd565b5f80fd5b5f819050919050565b620000648162000050565b81146200006f575f80fd5b50565b5f81519050620000828162000059565b92915050565b5f8060408385031215620000a157620000a06200004c565b5b5f620000b08582860162000072565b9250506020620000c38582860162000072565b9150509250929050565b610f8c80620000db5f395ff3fe608060405234801561000f575f80fd5b5060043610610086575f3560e01c80633197cbb6116100595780633197cbb61461011257806370651a181461013057806378e97925146101615780639f9261821461017f57610086565b806301d3be051461008a57806309eef43e146100a857806314034bd2146100d857806324108475146100f6575b5f80fd5b61009261019b565b60405161009f9190610627565b60405180910390f35b6100c260048036038101906100bd91906106ab565b6101a1565b6040516100cf91906106f0565b60405180910390f35b6100e06101bd565b6040516100ed9190610793565b60405180910390f35b610110600480360381019061010b9190610909565b6102fd565b005b61011a6104fa565b6040516101279190610627565b60405180910390f35b61014a60048036038101906101459190610963565b610500565b60405161015892919061098e565b60405180910390f35b6101696105a6565b6040516101769190610627565b60405180910390f35b610199600480360381019061019491906109bc565b6105ac565b005b60035481565b5f602052805f5260405f205f915054906101000a900460ff1681565b60606005544211610203576040517f08c379a00000000000000000000000000000000000000000000000000000000081526004016101fa90610a4d565b60405180910390fd5b5f805f5b60035481101561025b578260025f8381526020019081526020015f206001015411156102485760025f8281526020019081526020015f206001015492508091505b808061025390610a98565b915050610207565b5060025f8281526020019081526020015f205f01805461027a90610b0c565b80601f01602080910402602001604051908101604052809291908181526020018280546102a690610b0c565b80156102f15780601f106102c8576101008083540402835291602001916102f1565b820191905f5260205f20905b8154815290600101906020018083116102d457829003601f168201915b50505050509250505090565b600454421015801561031157506005544211155b610350576040517f08c379a000000000000000000000000000000000000000000000000000000000815260040161034790610b86565b60405180910390fd5b5f803373ffffffffffffffffffffffffffffffffffffffff1673ffffffffffffffffffffffffffffffffffffffff1681526020019081526020015f205f9054906101000a900460ff16156103d9576040517f08c379a00000000000000000000000000000000000000000000000000000000081526004016103d090610bee565b60405180910390fd5b6001816040516103e99190610c46565b90815260200160405180910390205f9054906101000a900460ff1615610444576040517f08c379a000000000000000000000000000000000000000000000000000000000815260040161043b90610ccc565b60405180910390fd5b60015f803373ffffffffffffffffffffffffffffffffffffffff1673ffffffffffffffffffffffffffffffffffffffff1681526020019081526020015f205f6101000a81548160ff021916908315150217905550600180826040516104a99190610c46565b90815260200160405180910390205f6101000a81548160ff02191690831515021790555060025f8381526020019081526020015f206001015f8154809291906104f190610a98565b91905055505050565b60055481565b6002602052805f5260405f205f91509050805f01805461051f90610b0c565b80601f016020809104026020016040519081016040528092919081815260200182805461054b90610b0c565b80156105965780601f1061056d57610100808354040283529160200191610596565b820191905f5260205f20905b81548152906001019060200180831161057957829003601f168201915b5050505050908060010154905082565b60045481565b60405180604001604052808281526020015f81525060025f60035481526020019081526020015f205f820151815f0190816105e79190610e87565b506020820151816001015590505060035f81548092919061060790610a98565b919050555050565b5f819050919050565b6106218161060f565b82525050565b5f60208201905061063a5f830184610618565b92915050565b5f604051905090565b5f80fd5b5f80fd5b5f73ffffffffffffffffffffffffffffffffffffffff82169050919050565b5f61067a82610651565b9050919050565b61068a81610670565b8114610694575f80fd5b50565b5f813590506106a581610681565b92915050565b5f602082840312156106c0576106bf610649565b5b5f6106cd84828501610697565b91505092915050565b5f8115159050919050565b6106ea816106d6565b82525050565b5f6020820190506107035f8301846106e1565b92915050565b5f81519050919050565b5f82825260208201905092915050565b5f5b83811015610740578082015181840152602081019050610725565b5f8484015250505050565b5f601f19601f8301169050919050565b5f61076582610709565b61076f8185610713565b935061077f818560208601610723565b6107888161074b565b840191505092915050565b5f6020820190508181035f8301526107ab818461075b565b905092915050565b6107bc8161060f565b81146107c6575f80fd5b50565b5f813590506107d7816107b3565b92915050565b5f80fd5b5f80fd5b7f4e487b71000000000000000000000000000000000000000000000000000000005f52604160045260245ffd5b61081b8261074b565b810181811067ffffffffffffffff8211171561083a576108396107e5565b5b80604052505050565b5f61084c610640565b90506108588282610812565b919050565b5f67ffffffffffffffff821115610877576108766107e5565b5b6108808261074b565b9050602081019050919050565b828183375f83830152505050565b5f6108ad6108a88461085d565b610843565b9050828152602081018484840111156108c9576108c86107e1565b5b6108d484828561088d565b509392505050565b5f82601f8301126108f0576108ef6107dd565b5b813561090084826020860161089b565b91505092915050565b5f806040838503121561091f5761091e610649565b5b5f61092c858286016107c9565b925050602083013567ffffffffffffffff81111561094d5761094c61064d565b5b610959858286016108dc565b9150509250929050565b5f6020828403121561097857610977610649565b5b5f610985848285016107c9565b91505092915050565b5f6040820190508181035f8301526109a6818561075b565b90506109b56020830184610618565b9392505050565b5f602082840312156109d1576109d0610649565b5b5f82013567ffffffffffffffff8111156109ee576109ed61064d565b5b6109fa848285016108dc565b91505092915050565b7f566f74696e67206973207374696c6c206f6e676f696e670000000000000000005f82015250565b5f610a37601783610713565b9150610a4282610a03565b602082019050919050565b5f6020820190508181035f830152610a6481610a2b565b9050919050565b7f4e487b71000000000000000000000000000000000000000000000000000000005f52601160045260245ffd5b5f610aa28261060f565b91507fffffffffffffffffffffffffffffffffffffffffffffffffffffffffffffffff8203610ad457610ad3610a6b565b5b600182019050919050565b7f4e487b71000000000000000000000000000000000000000000000000000000005f52602260045260245ffd5b5f6002820490506001821680610b2357607f821691505b602082108103610b3657610b35610adf565b5b50919050565b7f566f74696e67206e6f7420616c6c6f77656420617420746869732074696d65005f82015250565b5f610b70601f83610713565b9150610b7b82610b3c565b602082019050919050565b5f6020820190508181035f830152610b9d81610b64565b9050919050565b7f596f75206861766520616c726561647920766f746564000000000000000000005f82015250565b5f610bd8601683610713565b9150610be382610ba4565b602082019050919050565b5f6020820190508181035f830152610c0581610bcc565b9050919050565b5f81905092915050565b5f610c2082610709565b610c2a8185610c0c565b9350610c3a818560208601610723565b80840191505092915050565b5f610c518284610c16565b915081905092915050565b7f526f6c6c206e756d6265722068617320616c7265616479206265656e207573655f8201527f6400000000000000000000000000000000000000000000000000000000000000602082015250565b5f610cb6602183610713565b9150610cc182610c5c565b604082019050919050565b5f6020820190508181035f830152610ce381610caa565b9050919050565b5f819050815f5260205f209050919050565b5f6020601f8301049050919050565b5f82821b905092915050565b5f60088302610d467fffffffffffffffffffffffffffffffffffffffffffffffffffffffffffffffff82610d0b565b610d508683610d0b565b95508019841693508086168417925050509392505050565b5f819050919050565b5f610d8b610d86610d818461060f565b610d68565b61060f565b9050919050565b5f819050919050565b610da483610d71565b610db8610db082610d92565b848454610d17565b825550505050565b5f90565b610dcc610dc0565b610dd7818484610d9b565b505050565b5b81811015610dfa57610def5f82610dc4565b600181019050610ddd565b5050565b601f821115610e3f57610e1081610cea565b610e1984610cfc565b81016020851015610e28578190505b610e3c610e3485610cfc565b830182610ddc565b50505b505050565b5f82821c905092915050565b5f610e5f5f1984600802610e44565b1980831691505092915050565b5f610e778383610e50565b9150826002028217905092915050565b610e9082610709565b67ffffffffffffffff811115610ea957610ea86107e5565b5b610eb38254610b0c565b610ebe828285610dfe565b5f60209050601f831160018114610eef575f8415610edd578287015190505b610ee78582610e6c565b865550610f4e565b601f198416610efd86610cea565b5f5b82811015610f2457848901518255600182019150602085019450602081019050610eff565b86831015610f415784890151610f3d601f891682610e50565b8355505b6001600288020188555050505b50505050505056fea26469706673582212208b050c184d3532843f20ff4b9c991aee6ef1a7bdfb4c4f615b7404a700db231b64736f6c63430008150033",
  "immutableReferences": {},
  "source": "pragma solidity ^0.8.0;\r\n\r\ncontract Voting {\r\n    struct Party {\r\n        string name;\r\n        uint256 voteCount;\r\n    }\r\n\r\n    mapping(address => bool) public hasVoted;\r\n    mapping(string => bool) private usedRollNumbers;\r\n    mapping(uint256 => Party) public parties;\r\n    uint256 public totalParties;\r\n\r\n    uint256 public startTime;\r\n    uint256 public endTime;\r\n\r\n    constructor(uint256 _startTime, uint256 _endTime) {\r\n        startTime = _startTime;\r\n        endTime = _endTime;\r\n    }\r\n\r\n    function registerParty(string memory _name) public {\r\n        parties[totalParties] = Party(_name, 0);\r\n        totalParties++;\r\n    }\r\n\r\n    function vote(uint256 partyId, string memory rollNumber) public {\r\n        require(block.timestamp >= startTime && block.timestamp <= endTime, \"Voting not allowed at this time\");\r\n        require(!hasVoted[msg.sender], \"You have already voted\");\r\n        require(!usedRollNumbers[rollNumber], \"Roll number has already been used\");\r\n\r\n        hasVoted[msg.sender] = true;\r\n        usedRollNumbers[rollNumber] = true;\r\n        parties[partyId].voteCount++;\r\n    }\r\n\r\n    function declareWinner() public view returns (string memory) {\r\n        require(block.timestamp > endTime, \"Voting is still ongoing\");\r\n\r\n        uint256 maxVotes = 0;\r\n        uint256 winnerId = 0;\r\n\r\n        for (uint256 i = 0; i < totalParties; i++) {\r\n            if (parties[i].voteCount > maxVotes) {\r\n                maxVotes = parties[i].voteCount;\r\n                winnerId = i;\r\n            }\r\n        }\r\n\r\n        return parties[winnerId].name;\r\n    }\r\n}\r\n",
  "sourcePath": "C:\\Users\\gpsha\\Desktop\\blockchain-based-voting\\smart-contract\\contracts\\Voting.sol",
  "compiler": {
    "name": "solc",
    "version": "0.8.21+commit.d9974bed.Emscripten.clang"
  },
  "schemaVersion": "3.4.16",
  "updatedAt": "2024-10-29T20:49:27.977Z",
  "devdoc": {
    "kind": "dev",
    "methods": {},
    "version": 1
  },
  "userdoc": {
    "kind": "user",
    "methods": {},
    "version": 1
  }
}